:020000040800F2
:10000000F8FF072081970508DBEA0408C9EA04081D
:10001000DDEA0408EDEA0408FDEA04080000000037
:100020000000000000000000000000000DEB0408CC
:100030000FEB04080000000075FB0408ADFB04088A
:1000400061960508F9EB04080BEC040811EC0408B0
:10005000D5800508619605088DEB040893EB04082C
:1000600099EB04089FEB0408A5EB0408891E05081A
:10007000991E0508A91E0508B91E0508C91E050810
:10008000D91E0508E91E0508619605086196050850
:10009000894105088F41050895410508ABEB040827
:1000A00025EC04082BEC04083DEC040843EC0408A0
:1000B00049EC04084FEC040855EC0408D5EC04089E
:1000C000DBEC0408E1EC0408E7EC040861960508A1
:1000D00061960508A5EC0408ABEC0408B1EC040833
:1000E000CFEB0408FFEB04081DEB040881EC0408C7
:1000F00087EC04089FEC040899EC0408F91E050835
:10010000619605088D8A05085DEC0408619605086E
:10011000B7EC0408BDEC040875EC04087BEC04089B
:10012000091F0508191F0508291F0508391F05089B
:10013000491F0508B954050805EC0408619605082F
:1001400061960508619605086196050811EB04089B
:10015000591F0508691F0508791F0508C3EC040825
:10016000619605086196050861960508619605087F
:100170006196050861960508619605080000000073
:100180006196050861960508C9EC0408CFEC0408DF
:10019000619605086196050861960508619605084F
:1001A000619605086196050861960508619605083F
:1001B000619605086196050861960508EDEC04084E
:1001C000F3EC04086196050800000000619605083C
:1001D000619605086196050861960508619605080F
:1001E00061960508619605086196050861960508FF
:1001F000619605086196050842884378007843EACD
:10020000022340EA032070470B0A017043700B0C75
:10021000090E8370C1707047036A0239023B8B423A
:1002200083BFC389406B01FB030000207047024677
:1002300000F10B010020C30143EA500312F8010B47
:1002400050FA83F38A42D8B2F5D1704737B50D46DC
:10025000044620B9092000232B6003B030BD036899
:10026000002BF7D05A79002AF4D081885A8991421C
:10027000F0D10DF107020621186802F0F1FA00280A
:10028000E8D19DF8070010F00100E3D12368E3E70F
:1002900038B50368044618785D1C20B140F2B511EA
:1002A00059F0CAFA08B1256038BD4FF0FF30FBE7BE
:1002B0000328CA7E8B7E08BF487D43EA022302BF23
:1002C0000A7D42EA002243EA024318467047C2F31D
:1002D00007238A76CB760378032B01BF120C0A75AD
:1002E000120A4A75704770B5C37904460BB90020ED
:1002F00070BD00F13C06826B01230068314602F0BC
:100300009AFA80B9A16BE36A626ACB1AE0719342F0
:10031000EDD2A379022BEAD10A44012331462068A9
:1003200002F089FAE3E70120E2E7836B8B4270B5C4
:1003300006460D4612D0FFF7D6FF044660B92A469E
:10034000012306F13C01306802F066FA00281CBF68
:100350004FF0FF350124B563204670BD0024FBE754
:10036000002310B5C3714FF0FF3304468363FFF7DA
:10037000DCFF18BB94F83B2294F83A3243EA02239C
:100380004AF6552293421BD194F83C30EB2B03D014
:100390001833DBB2012B15D803220B4904F172008C
:1003A0003FF044FE48B10522084904F18E003FF0B9
:1003B0003DFE002814BF0220002010BD0420FCE7F1
:1003C0000320FAE70220F8E7178E08081B8E0808BA
:1003D0002DE9F043437987B0044601F0FE059BB157
:1003E00006210DF10702006802F03AFA9DF80700B5
:1003F000C10709D4002D00F0BA8010F0040000D02D
:100400000A2007B0BDE8F08300230DF107020521A3
:100410002068637102F024FA9DF80730DA0700F1D2
:10042000A8800DB15B07EBD400212046FFF798FFB1
:100430000228034603D0012823D825796DB304F29E
:100440000225002102AF15F8040C10B12846FFF771
:10045000D3FE47F82100013110350429F3D1267964
:1004600006B1013E57F826507DB129462046FFF7D8
:1004700077FF0346227952B9012B0ED90136032E9C
:10048000F0D9042B07D10120BBE70323F2E7042BAB
:10049000F9D0012B01D90D20B3E794F8482094F846
:1004A000473043EA0223B3F5007FF4D194F8533088
:1004B00094F8526056EA032604D104F16000FFF775
:1004C0009BFE064694F84C90666209F1FF3384F86F
:1004D0000690012BDFD894F84970BBB2E381002B62
:1004E000D9D07B1E3B42D6D194F84E3094F84D8043
:1004F00048EA032818F00F0FA4F80C80CBD194F829
:10050000501094F84F0050EA012003D104F15C0030
:10051000FFF772FE94F84B2094F84A3053EA022316
:10052000B9D006FB09F903EB18124A448242B2D84B
:10053000811AB1FBF7F10029ADD045488142AAD814
:100540004FF6F570814216D903271AE0B8F1000F73
:10055000A1D0022F4FEA41004B441CBF401801F0CC
:10056000010123630CBF014601EB500124E0284642
:1005700047E7032045E740F6F577B94294BF0127E6
:10058000022702312B442A44032F2162A562E36231
:100590006263DBD194F8672094F8663053EA022353
:1005A0007FF479AFB8F1000F7FF475AF04F1680004
:1005B000FFF722FE2063890001F2FF11B6EB512FF5
:1005C000FFF469AF4FF0FF33032FC4E905334FF059
:1005D000800323722FD194F86D2094F86C3043EA95
:1005E0000223012B27D1691C2046FFF79EFE10BB7A
:1005F00094F83B2294F83A32207243EA02234AF6F6
:100600005522934217D104F13C00FFF7F5FD114B41
:10061000984210D104F50870FFF7EEFD0E4B98429A
:1006200009D104F50970FFF7E7FDA06104F50A7030
:10063000FFF7E2FD6061094A002067711388E061FD
:1006400001339BB213806381054B2361D9E600BF60
:10065000F5FFFF0F525261417272416150C1022099
:1006600052C1022001292DE9F04705460C461746E4
:1006700073D9036A8B4270D94379022B40D0032B84
:1006800051D0012B69D101EB5108C16A01EB58210E
:10069000FFF74BFE064640BB14F0010405F13C0990
:1006A00008F1010AC8F3080808BFFBB228461FBFBB
:1006B00019F8083003F00F023B0103F0F00318BFF4
:1006C000134309F808300123E96AEB7101EB5A2161
:1006D000FFF72BFE064640B9CAF3080A44B1C7F338
:1006E000071709F80A700123EB713046BDE8F0875F
:1006F00019F80A30C7F3032723F00F031F43F0E76D
:10070000C16A01EB1421FFF710FE06460028ECD168
:10071000640005F13C0304F4FF741F551A19C7F374
:1007200007275770DFE7C16A01EBD411FFF7FDFD22
:1007300006460028D9D1A40005F13C0327F07047F4
:1007400004F4FE741C442046FFF756FD00F070418F
:1007500020463943FFF758FDC5E70226C5E70129C2
:10076000F8B505460C4652D9036A99424FD24379EF
:10077000022B29D0032B38D0012B48D101EB510695
:10078000C16A01EB5621FFF7D0FD10B14FF0FF30E9
:10079000F8BD771CC6F30806E96A28462E4401EB2B
:1007A000572196F83C60FFF7C0FD0028EED1C7F353
:1007B0000807E3073D4495F83C0046EA00204CBF9B
:1007C0000009C0F30B00E3E7C16A01EB1421FFF756
:1007D000ACFD0028DAD164003C3504F4FF742B1919
:1007E000285D5B7840EA0320D2E7C16A01EBD411AF
:1007F000FFF79BFD0028C9D1A40005F13C0004F4DB
:10080000FE742044FFF7F8FC20F07040C0E70120A0
:10081000BEE7B1F5001FF8B506460D4601D302202C
:10082000F8BDCA06FBD1826804683161C2B9637938
:10083000022B01D9236BA3B9A389B3EB551FEED9C2
:10084000236BB361B3697261002BE8D003EB5523CE
:100850003C34C5F308050020B3612C44F461DFE7A4
:100860001346E7891A467F02BD42114604D220464C
:10087000FFF7D2FCB061E5E73068FFF770FF431C7B
:10088000024606D00128CAD9236A8342C7D9ED1B84
:10089000EAE70120C4E72DE9F041804605680F46EC
:1008A00049B96E69CEB12B6AB34298BF0126AB69D4
:1008B000ABB9002409E02846FFF751FF01280446A0
:1008C00058D9421C04D14FF0FF342046BDE8F081D6
:1008D0002B6A8342F9D83E46E9E70126E7E7BE42A4
:1008E00015D12B6A741CD8F800009C4228BF022442
:1008F0002146FFF734FF01283CD0431CE3D0D8B198
:100900006B69012B03D92A6A934238BF1E463446CD
:1009100001342B6AA34202D8012ECAD902242146EF
:10092000D8F80000FFF71BFF40B1012822D00130AA
:10093000C9D0B442ECD1BCE7002CE8D04FF0FF3274
:1009400021462846FFF78EFE90B957B92A6AAB694F
:10095000023A6C6193420FD92B7A43F001032B7258
:10096000B3E7224639462846FFF77CFE0028EDD043
:100970000128A8D00124A8E7013BAB61ECE7F8B55A
:100980000D4607461146012D2CD90468236AAB4257
:1009900028D92AB14FF0FF322046FFF763FE30B965
:1009A00029463868FFF7DBFE064608B90020F8BD87
:1009B000012817D0431C17D0002229462046FFF7F4
:1009C00051FE0028F3D1226AA369911E8B4205D201
:1009D0000133A361237A43F001032372B242354607
:1009E000DED8E3E70220E2E70120E0E7F8B50546BC
:1009F0000E46FFF778FC0446F8B9314605F13C068F
:100A00002846FFF709FC4FF400720746A863214609
:100A100030463FF0F7FAEB899C4204D3E889001B8B
:100A200018BF0120F8BD01233A193146286801F0AA
:100A300002FF0028F2D10134EDE70120F2E72DE9B1
:100A4000F84307690446894605682037B7F5001F53
:100A500024BF00238361836973B1C7F30808B8F129
:100A6000000F39D101334169836139B9AB89B3EBE7
:100A7000571F31D80023A36104200BE0EB89013B11
:100A800013EA572328D12846FFF769FE01280646B6
:100A900002D80220BDE8F883421C01D10120F9E709
:100AA0002B6A834212D8B9F1000FE3D06169204666
:100AB000FFF7F1FE0646A8B10128EAD0431CEDD0AD
:100AC00001462846FFF792FF0028E7D166613146CC
:100AD0002846FFF7A1FBA0613C3527610020454473
:100AE000E561D7E70720D5E7F8B50F4600210446B2
:100AF0000668FFF78EFEA8B90546A1693046FFF7E4
:100B000014FC78B9E3691B78E52B00D01BB90135DB
:100B1000BD4201D1F8BD054601212046FFF78FFFF8
:100B20000028EAD0042808BF0720F3E72DE9F84F92
:100B3000FF2582460F4606682C464FF0040BDFF86F
:100B40001C814FF6FF79DAF8181019B9BBF1000FC4
:100B500076D065E03046FFF7E8FB834600285FD19A
:100B6000DAF81C000278002A74D0C37AE52A03F070
:100B70003F038AF8063059D02E2A57D023F020019F
:100B8000A1F1080CDCF1000141EB0C01B9424DD19F
:100B90000F2B50D1510647D5DAF8103002F0BF02C2
:100BA000457BCAF82C30437BAB423FD1C17E837E6C
:100BB00043EA01231BB2002B38D101780D24D6F86B
:100BC00010C04FF0010E21F040010139614313F8CC
:100BD000084000EB040B045D9BF801B044EA0B24D1
:100BE000BEF1000F24D0FF2920D82CF81140A646D2
:100BF000013101330D2BEAD103785B0607D5BEF135
:100C0000000F04D0FF2911D800232CF81130541EF6
:100C1000E4B200215046FFF712FF8346002892D02D
:100C20000023CAF818300DE09442BCD0FF24F0E74E
:100C30004C45DED0FAE744B9FFF7F9FAA84204D1EF
:100C40004FF0000B5846BDE8F88F4FF0FF33CAF85D
:100C50002C30F7E74FF0040BE2E700BFF88D0808EF
:100C6000C16A4B1C2DE9F04104460568066918D19C
:100C7000E5274FF00108A1692846FFF756FB60B948
:100C8000E3691F7085F807802369B3420DD20146DE
:100C90002046FFF7D4FE0028EDD0042808BF02202C
:100CA00003E0FFF7B6FD0028E2D0BDE8F0810000C8
:100CB0002DE9F04F002185B00446D0F800A0FFF7E1
:100CC000A8FD8046002840F093804FF0FF094FF0C8
:100CD000FF334E46E362A1695046FFF726FB80468C
:100CE000002840F08580E5692F78002F00F084808F
:100CF000EA7AE52F02F03F03A37103D0120705D56E
:100D00000F2B05D04FF0FF33E36258E00F2B5DD17E
:100D100094F82B30580648D479064ED5236907F04D
:100D2000BF0795F80D90E3626B7B4B4547D1EB7E97
:100D3000AE7E46EA032636B2002E40D195F80080FA
:100D40000121DAF810B008F03F0808F1FF334FF046
:100D50000D0808FB03F82A4BF25CAB185878AB5C23
:100D600043EA002369B3B8F1FF0F28D8184603936C
:100D700058F076FD08F1010202903BF8180001924C
:100D800058F06EFD0299814219D1039B019A1946D0
:100D9000904601360D2EDED12B785A0603D511B1BF
:100DA0003BF818305BB9013FFEB200212046FFF747
:100DB00046FE804600288ED01AE0BE42B4D0FF2600
:100DC000F3E74FF6FF729342E3D0F8E726B92846DF
:100DD000FFF72DFA48450BD094F82B30DB0791D460
:100DE0000B2204F1200128463FF020F9002889D188
:100DF000404605B0BDE8F08F4FF00408F8E700BFAB
:100E0000F88D08082DE9F04F90F82BB089B0054611
:100E10001BF0A0047ED107683A6932F81430002B29
:100E200061D105F120060DF114091BF0010F96E8C0
:100E3000070089E8070074D040234FF0010885F8C7
:100E40002B30B4463B69B8F1050F99E80700ACE8D0
:100E500003002CF8022B4FEA12428CF8002055D9DF
:100E6000981E424630F8021F00293ED1072102F0A9
:100E70000F0C013903AB0CF13000392888BF0CF19D
:100E8000370003EB010C12098CF80100EFD108AB1D
:100E90004FF07E0C581800F814CC8A4204D0B05C95
:100EA00002F1010C202833D13244072997BF08AB47
:100EB00020205818013198BF10F8140C02F8010BCB
:100EC000901B0728F1D92846FFF7F2FE824620BB87
:100ED00008F10108B8F1640FB3D14FF0070A50468A
:100EE00009B0BDE8F08F013497E74FF0100C01F026
:100EF000010E49080EEB4202D30344BF82F488324C
:100F000082F02102BCF1010CF1D1ABE74246ADE722
:100F10006246C2E74FF0060AE1E70428DFD185F810
:100F20002BB01BF0020F28461BBF0C340D230124ED
:100F3000B4FBF3F418BF01342146FFF7D5FD824618
:100F40000028CCD1013C56D029692846A1EB441198
:100F5000FFF75FFC82460028C1D130464FF6FF798B
:100F6000FFF765F98046A9693846FFF7DEF9824642
:100F70000028B4D1EB690F22E1B2D7F810E04FF0AE
:100F80000D0CDA724A1E83F80D8018730CFB02F206
:100F900084469876D876019248451FBF019A3EF85C
:100FA000120001320192234A1CF802A00CF1010C3C
:100FB00003F80A0003EB0A0B4FEA102A002808BFC7
:100FC0004846BCF10D0F8BF801A0E5D1484503D090
:100FD000019A3EF812200AB941F04001197001232C
:100FE00000212846FB71FFF72AFD824600287FF486
:100FF00076AF013CB7D1A9693846FFF796F982462A
:1010000000287FF46CAF01462022E8693EF0FAFF29
:10101000EB6903CE18605960B27831889A721981F1
:1010200095F82B30EA6903F0180313730123FB7161
:1010300055E700BFF88D0808F8B50446FFF753F9E7
:101040000546002842D16379032B37D1277A012F37
:1010500034D104F13C0601464FF4007230463EF0B4
:10106000D1FF55234122722184F83A32AA2384F811
:101070003F2004F5097084F83B32522384F8222281
:1010800084F83C3084F83D30612384F8201284F8E1
:101090003E3084F8233284F82112A169FFF7B4F8B6
:1010A000616904F50A70FFF7AFF8A26A3B46314662
:1010B00001322068A26301F0BEFB25720022206885
:1010C000114601F0CDFB003018BF0120F8BD2DE91D
:1010D000F0470027D0F8009006460C468F758369CC
:1010E000002B00F09680C36A013370D1F0690023B1
:1010F0002E27451E194615F8012F0131202A10D040
:10110000052A08BFE522092906D10B2B9EBF04EB57
:10111000030C01338CF8097004EB030C01338CF8D9
:1011200009200B29E7D1E21800215172A27D002A83
:101130005DD1002B52D004F109010825134611F8A6
:10114000012B002A4DD092B22E2AA2F1410708BFEE
:101150001025192F03D8077B3D4218BF20320A7390
:101160000133ECE7B8F1000F05D100F520539BB235
:10117000B3F5006F13D340F2B51140EA084058F0C0
:101180003BFBFF28C5F1FF0A19D9BAF1010F21D99C
:101190006319020AD8759A7502231D44002002378C
:1011A0008046D9F81030D85B0028DBD1B8F1000FA9
:1011B0004FF0000318BF00252544AB7596E748B1F2
:1011C000BAF1000F08D0631998750123E5E7B84616
:1011D0003D46E6E70025E9E75546E7E73F23A375E7
:1011E0000123234400229A75037B03B96372F169DA
:1011F000CB7A01F11C002372FEF7FEFF2060CA7D4E
:101200008B7D43EA0223E3804A7E0B7E43EA02237E
:10121000A380BDE8F08700002DE9F04F036887B098
:101220000646894601930B782F2B01D05C2B09D100
:101230004A461378914601322F2BFAD05C2BF8D016
:10124000002301E0019BDB69B36099F800301F2B9C
:1012500000F22B8180230021304686F82B30FFF7E7
:10126000D8FA07B0BDE8F08FFE2D00F247812AF8CA
:10127000153001351FE109F101020592DDF81490E6
:1012800099F800202F2AF6D05C2AF4D01F2B8CBFAF
:1012900000240424012D2CD1BAF800302E2B2ED19D
:1012A000002306F120022AF815309D4294BF202128
:1012B0002E2101330B2B02F8011BF6D144F0200440
:1012C00086F82B403046FFF7F3FC96F82B300028C9
:1012D00000F0D9800428C4D1990603F0040240F13B
:1012E000CE80002A00F0E1808023002086F82B3099
:1012F000B7E7022D03D1BAF802302E2BCCD00AEB7F
:10130000450395BB00230AEB45022AF81530002D52
:1013100000F0F4803AF81310581C20292DD00BB996
:101320002E2902D144F00304E4B232F8021D2E2922
:1013300001D0013DF9D14FF000084FF020314FF0BE
:10134000080B474671623162C6F827103AF813005D
:101350005A1C20B3202803D02E2810D1954212D039
:1013600044F00304E4B21346F0E733F8022D202AD8
:1013700001D02E2AC6D1013DC3E70346CAE7D845AE
:1013800005D295423ED1BBF10B0F33D102E0BBF148
:101390000B0F29D144F003044FF00B0BE4B296F885
:1013A0002030E52B04BF052386F82030BBF1080F61
:1013B00004BFBF00FFB207F00C030C2B03D007F0F3
:1013C0000303032B02D144F00204E4B2A3073FF568
:1013D00077AFFD0744BF44F01004E4B2780744BF80
:1013E00044F00804E4B26BE7954203D044F00304F0
:1013F000E4B2D4D3BF002A464FF00B0B4FF00808DD
:10140000FFB2B0E77F2838D944F0020340F2B511AB
:101410000392DBB2029358F0EFF910F0800FDDE990
:10142000023210D000F07F003F49085C30B13F4CE1
:1014300014F8011F002965D08142F9D143F003035C
:101440005F20DBB211E0FF28F0D90BF1FF318845B6
:1014500004D344F00304D846E4B284E706EB080161
:10146000040A08F1010881F8204006EB08011C4637
:1014700008F1010881F8200075E72346D7E7002A24
:1014800008BF0520EDE65A073FF5EBAEB379DB0662
:1014900036D5019B03F13C013369C3F308031944BA
:1014A000019B5879FEF704FFB06033680025CDF842
:1014B0001490D3F810A005A8FEF7EAFE421C1DD038
:1014C000B0F5803F24BF030C2AF8153083B228BF43
:1014D00001351F2B7FF6D2AE2F2B3FF4CFAE5C2B06
:1014E0003FF4CCAE7F2B3FF6BFAE1846104911F843
:1014F000012F002A3FF4B8AE9042F8D10620B0E6A2
:101500000520AEE6A0F1410189B2192901D847F0C2
:101510000207A0F1610189B219299EBF203847F066
:10152000010780B2A1E700BF788D08087A8E08080D
:10153000718E080800214171FEF74ABF2DE9F0477E
:1015400005468CB091461F460C46002900F0BE802F
:1015500003F03F063146FEF73BFF002840F0AE8027
:101560000DF13008494648F8305D4046FFF754FE1B
:10157000024620B99DF92B30002BB8BF062217F088
:101580001C0F49D0002A3ED0042A39D14046FFF72B
:1015900039FC0246A0BB46F00806310746D5DDF807
:1015A0001CA0A946514619F8050FFEF781FE074613
:1015B00057F0A8FA01460AF10E00FEF725FE079B38
:1015C00020224846DA7200220799FEF780FE079B28
:1015D00000221A775A779A77DA770123EB712FB3C3
:1015E00039464046D5F83890FFF7C9F9024638B970
:1015F000013F49462846FEF798FE6F610246A8B1B2
:101600000023236032E09DF8063013F0110F59D10A
:101610007807C2D50822F3E7002AF1D19DF80630F9
:10162000DA064DD4BF0701D5D8074BD4AB6B3107D1
:10163000079F236248BF46F04006676239466879D3
:10164000FEF736FE0146A06007F11C00FEF7D4FD50
:101650006B89B2060746A3804FF00003E060256067
:1016600026746374E361636104D4002210460CB0F5
:10167000BDE8F0870028F8D0EE8960617602BE42AE
:101680000FD30022A161002ABAD1C7F30803002BAF
:10169000EBD02846FEF7C0FDB0B100EB5720E0616B
:1016A000E4E72068BF1BFFF75AF80128014603D979
:1016B000431CE4D10122E5E70222E3E702469FE76B
:1016C00004229DE707229BE7022299E70922CDE742
:1016D0002DE9F04F994685B00023884603A90446BA
:1016E000C9F800301546FEF7B1FD0646E0B9667C44
:1016F000D6B9237CDA0779D5E3686769DF1BAF4287
:1017000028BF2F4687B16269C2F30803002B54D16A
:10171000039BDB89013B13EA522A13D142B9A0682B
:1017200001280AD802266674304605B0BDE8F08F5D
:10173000A1692068FFF713F8F2E7431C01D10126E5
:10174000F1E7A061DDF80CB0A1695846FEF764FD31
:101750000028E7D00AEB00037D0A01932BD0BBF8E9
:101760000E200AEB0501DBF800009142414688BFDC
:10177000A2EB0A05019A2B4601F04EF80028DED1B3
:101780000399CB795BB1886B019BC01AA84206D242
:101790004FF400723C3108EB40203EF0EFFB6D024D
:1017A000D9F800307F1BA8442B44C9F80030636986
:1017B0001D446561A6E7019BE3616569E169C5F3C5
:1017C00008050398C5F50075BD4228BF3D46FEF7E4
:1017D000ACFD0028B3D103992A46636940463C31E9
:1017E000C3F3080319443EF0C9FBD9E707269BE77A
:1017F0002DE9F04F9B4685B00023894603A9044696
:10180000CBF800301746FEF721FD064610BB667C7C
:1018100006BB237C9A0740F1A7806369FB4200D393
:10182000DF439FB16369C3F30802002A7FD1039AA3
:10183000D289013A12EA532201921ED173B9A068EB
:1018400070B901462046FFF726F848B9237C43F0DB
:1018500040032374304605B0BDE8F08FA169F1E77D
:10186000012802D102266674F4E7431C01D1012647
:10187000F9E7A368A06103B9A0600398E369826BEC
:101880009A4203D1FEF72FFD0028F0D1DDF80CA01D
:10189000A1695046FEF7C0FC0028E3D0019B7D0AF9
:1018A00003EB000835D0019A4946BAF80E302A44B5
:1018B000DAF800009A4284BF019A9D1A42462B46EC
:1018C00000F0B9FF0028D2D1DDF80CA0DAF838100A
:1018D000A1EB0801A9420BD201904FF4007209EB71
:1018E00041210AF13C003EF049FB019B8AF8073098
:1018F0006D02DBF800307F1BA9442B44CBF800308D
:1019000063691D44E3686561AB422CBFE360E56039
:1019100087E76269E3689A4207D35046FEF7E3FC23
:101920000028A4D1039BC3F83880C4F81C806569E3
:10193000E169C5F308050398C5F50075BD4228BFE8
:101940003D46FEF7F2FC002891D103982A466369D0
:1019500049463C30C3F3080318443EF00FFB039B99
:101960004FF00102DA71C4E7072673E7F7B501A962
:101970000446FEF76BFC054660BB237C5B0629D55D
:1019800057F0C0F8216A07460198FEF7CEFC0546DD
:1019900000BB666AF37A314643F02003F372206895
:1019A000A2680530FEF793FCE16806F11C00FEF723
:1019B0002BFC394606F11600FEF726FC01230198A0
:1019C000B574F574C371FFF737FB237C054623F02C
:1019D00040032374284603B0F0BD13B50446FFF757
:1019E000C5FF28B901A92046FEF730FC00B92060E8
:1019F00002B010BD70B50E468CB000210546FEF752
:101A0000E7FC044668B90CA8314640F8305DFFF7A2
:101A100003FC044690B99DF92B30002B04DA029B9D
:101A2000EB6120460CB070BD9DF80630DB0609D591
:101A300007996879FEF73CFCE861F2E7042808BFE3
:101A40000524EEE70524ECE72DE9F0470E460021DA
:101A5000D2B0804631709146FEF7BAFC0746D0B945
:101A6000D8F81C304D46CDF800800293DDF808A070
:101A7000BAF1000F15D14D4502D1013D2F23735509
:101A80007119334611F8012B03F8012B9A1B2A44D4
:101A90009145F7D81E4600233846337052B0BDE852
:101AA000F08720216846FEF7B4FE00284BD1069946
:101AB0004046FEF73AFC0446002842D1079998F8C0
:101AC0000500FEF7F5FB214602906846FEF7A1FEF1
:101AD000002838D100216846FFF728F8044668B985
:101AE000079998F80500FEF7E3FB50450BD0214617
:101AF0006846FEF7A4FF04460028EBD0042C14BF70
:101B000027460227C7E70CA96846FFF7E0FA0CAAA8
:101B1000631C2244927D62B99D4216D32A1B234640
:101B2000324443B96B1E2F221B1BE443F25425445D
:101B30009CE71C46EBE7013B0CA91944897DD15475
:101B4000EFE70746A7E70746A5E71127A3E7F7B59D
:101B50000D4601A90446FEF779FB064600283FD151
:101B6000667C002E3CD1E368AB4204D2227C12F0AA
:101B7000020F08BF1D460022636962610DB9284645
:101B80001CE0019AD7897F0203B3013B6A1EB3FBB5
:101B9000F7F1B2FBF7F28A4218D37A42A1691340F7
:101BA000ED1A636100293FD10020E36865699D4219
:101BB00081BF237CE56043F040032374C5F308052F
:101BC00075B1E36983420BD0E06109E0A16879B99E
:101BD0002046FEF760FE0128014604D10226667405
:101BE000304603B0F0BD013001D10126F7E7A16016
:101BF000A161D7E73B44ED1B6361237C9A0706D5BF
:101C00002046FEF748FE014628B905460FE0206849
:101C1000FEF7A5FD01464B1CE7D00129DED9019B4B
:101C20001B6A8B42DAD9A161BD426369E2D863695C
:101C30002B446361C5F30803002BB5D00198FEF770
:101C4000EBFA0028CAD000EB5520AEE770B5054688
:101C500016460C4621B30021FEF7BAFB68B9256091
:101C600031462046FFF7D8FAE0B994F92B30002B23
:101C70000BDBA379DB0603D40520002323600EE0F1
:101C80006879E169FEF714FBA0606B8900212046AA
:101C9000A380FEF7BEFD0428EED00028EDD170BD74
:101CA0000920FCE70428E7D0E7E713B501A90446BB
:101CB000FEF7CCFA00B9206002B010BD73B50D4636
:101CC00001A90446FEF7C2FA20B9014620461DB913
:101CD000FEF79FFD02B070BDFEF728FF10F0FB0677
:101CE000F8D129462046FFF7F2F931462046FEF7A3
:101CF000A6FE042808BF0020ECE770B504468CB0AF
:101D00000E4600211546FEF763FB0094044670B9A9
:101D100031466846FFF780FA044640B99DF92B30FA
:101D2000002B07DB1DB129466846FFF7D0F9204696
:101D30000CB070BD0624FAE72DE9F84F8846002163
:101D40000446FEF745FB074640B9D4F820A0A36936
:101D5000AAF10202934204D8C8F800303846BDE820
:101D6000F88F6379012B17D10226054631462046AC
:101D7000FEF7F5FC431C38D0012838D000B90135F6
:101D80000136236AB342F1D8C8F80050237AA5611E
:101D900043F001032372E1E7E16A0646054604F1D8
:101DA0003C0936B9204601F1010BFEF7BEFA00BB33
:101DB0005946637909EB0600022B0DD119F806305C
:101DC0000236427853EA022308BF0135BAF1010A0C
:101DD000C6F30806E5D1D7E7FEF70EFA30F07043F8
:101DE00006F1040608BF0135F0E70127CCE702271A
:101DF000CAE70746C8E72DE9F0410F4698B002212F
:101E00000646FEF7E5FA0446A0B918AD394645F88E
:101E1000606D2846FFF700FA044658B99DF82B304C
:101E20009A063ED41B063CD49DF8068018F0010F9C
:101E300004D00724204618B0BDE8F08107997079D6
:101E4000FEF736FA18F0100F07460BD12846FEF7BA
:101E500007FF04460028EDD1D7B93046FFF7ECF86C
:101E60000446E7E7F3698342E3D00E9021460CA8CD
:101E70000C96FEF7CEFC04460028DBD101460CA8E8
:101E8000FEF754FE04460028D3D00428D2D1DDE763
:101E9000024639462846FEF772FD04460028DCD08B
:101EA000C8E70624C6E72DE9F04F0E4691B002219F
:101EB0000546FEF78DFA0446002871D10DF1400861
:101EC000314648F8305D4046FFF7A6F90446002841
:101ED00074D0042864D19DF83B1011F020016FD11B
:101EE00010AF47F8405D3846FEF7D5FC064600289F
:101EF0005AD001285AD0431C5C425C4156F002FE85
:101F00008246002C54D131462846FEF76FFD044628
:101F100000284DD14FF0203305F13C0405F10509AF
:101F20005146EB6305F152002B64C5F843302E2374
:101F300085F83C30102385F84730FEF765F93246C6
:101F400021464846FEF7C3F905F15C031A4651F8ED
:101F5000040B994242F8040BF9D12E234FF0010BE8
:101F6000069A484685F85D30FEF7B1F985F807B066
:101F70004046FEF747FF0446D0B90B98514616304D
:101F8000FEF742F932460B994846FEF7A0F90B9B43
:101F900010222846DA7285F807B0FFF74DF804469C
:101FA000204611B0BDE8F08F0724A7E70224A5E77B
:101FB000002231463846FEF7E2FCF1E70824EFE75D
:101FC0000624EDE72DE9F0410C46A0B002210646BB
:101FD0009046FEF7FDF900287AD120AF214647F858
:101FE000606D3846FFF718F9002871D19DF84B3025
:101FF00013F0A00F6FD10F9B6C4603F120051868FA
:10200000083353F8041C2246AB4203C21446F6D1EF
:102010003D4614AC0FCD0FC40FCD0FC495E80F0093
:1020200084E80F00414614A8FFF7F6F848B9169A5D
:102030000A9B9A4203D1189A0C9B9A4203D008201B
:1020400046E0042844D114A8FEF7DCFE00283FD166
:102050001B990DF10D030DF11D0001F10D0253F857
:10206000044B834242F8044BF9D1188801241080B4
:102070009B7893709DF80B30DA0658BF43F020032D
:10208000CB72F471CB7ADB061BD50A9A169B9A4267
:1020900017D07079FEF70CF901463046FEF7BCF810
:1020A0000146D0B13046FEF740F988B996F85D3068
:1020B0002E2B06D1169A06F15C01701DFEF707F96A
:1020C000F4713846FEF7CCFD10B93046FEF7B4FF88
:1020D00020B0BDE8F0810620FAE70220F8E7000012
:1020E000F0B595B0074601910221FEF771F905465A
:1020F000002833D14FF0203302AE044602937360C0
:10210000C6F80730019B1B781F2B20D89DF808309C
:10211000E52B22D01CB1631EF25C202A30D00021B6
:1021200008A808970A91FEF774FB0546B0B901218B
:1021300008A8FEF7FBFC70BB0F9A1CB3334603CB19
:102140001060516019889B78118193721CE001A87E
:10215000FEF79EF8B0F5803F03D30625284615B05C
:10216000F0BD57F07DFB40F2B51157F045FB00285C
:10217000F3D01D4A12F8013F83B39842FAD1ECE73D
:102180001C46C7E7E523137001233846FB71FEF7B1
:1021900053FF0546E2E70428FBD1002CDED00121E5
:1021A00008A8FEF7A1FC05460028D7D12022014649
:1021B0000F983DF027FF08220F9BDA720F9ABDE7B8
:1021C000092CCAD814AB020A2344013403F8482C62
:1021D00014AB2344013403F8480C93E7FF28EFD8ED
:1021E0000A2CF5D9B9E700BF048E08082DE9F04F95
:1021F0001C4600238BB006684371154603790DF128
:102200001F02039130460521029300F029FB9DF83F
:102210001F30DF0700F18982580700F1888208AA81
:102220000321304600F01CFB30B9089A531EB3F569
:10223000004F01D21A4201D00123089345B1A5F500
:1022400000725D4B9A4203D913200BB0BDE8F08FAA
:102250006A1E2A40F8D1149B5B0A0593002C00F0FB
:102260006882002B00F06582029B002B64D0012362
:102270002146304600F0D0FA08B10120E5E794F895
:10228000FF2194F8FE3143EA02234AF65522934295
:1022900001D00E20D9E7029B04EB031191F8B23173
:1022A00001F5D771002BF4D001F10800FDF7A4FF70
:1022B000814601F10C00FDF79FFF0990DDF824A095
:1022C000BAF1150FE5D96B0A802BBDD8039A12F02D
:1022D000020E08D002F00701022900F039821146EF
:1022E000C90740F135820399CA07ADD5002B53D1F8
:1022F0004FEA1A3531484FF0010830F8021F09B192
:10230000A94231D9BAFBF8F540F6F5714FF0010B4F
:102310008D424FF0200193BF05EB450502350227A2
:10232000012794BF01356D0001919CBF6D080335F5
:1023300005F2FF156D0A2DE209AA0121304600F0D1
:102340008FFA002899D1039B13F0080F099B0CBF4B
:102350004FF03F094FF000094B459AD3A3EB090317
:102360000993ABE75B00F9E14FEA4808C5E7022FA4
:1023700026D14FF6F571049A8A420FD9002B40F00E
:10238000E3814FEA4803402BB0D9BEF1000F40F083
:10239000E181802B3FF67DAF9846B3E740F6F571BB
:1023A000049A8A4213D8002B7FF473AF4FEA480394
:1023B000802B9BD96DE700BF00FEFF00208E080830
:1023C00040F6F573049A9A423FF663AF01274FF443
:1023D0000072002120463DF015FED74B032F84F8F4
:1023E0000EB01A68CBF3072B84F80D8022605A6870
:1023F00084F80FB062601A899B7A22814FF0020242
:10240000A3724FF0000322734FF00102E372637472
:1024100018BF0223BAF5803F2274A37480F01D8197
:1024200084F813A0CAF3072A84F814A0F8234FF005
:10243000000A494604F11C0063753F2384F819A083
:102440002376FF2384F81BA0A376FDF7DDFE032F80
:1024500040F0098156F056FB014604F14300FDF7B8
:10246000D3FE294604F12400FDF7CEFE022304F139
:10247000470284F82DA084F82C30012384F82EA084
:1024800084F83030062384F82FA084F8323080237B
:1024900084F831A084F84030292384F833A084F8EC
:1024A0004230A64B03F1100153F8040B8B4242F863
:1024B000040BF9D119884FF0550B9B7830461180E9
:1024C000214693706FF0550384F8FEB14A4684F8B4
:1024D000FF31012300F0AFF9824600287FF4CDAE32
:1024E000032F3FD1012309F106022146304600F0B7
:1024F000A2F94FF40072514620463DF083FD52236D
:1025000041227221237004F5F47063706123E2703C
:10251000A37084F8E731049B84F8E41184F8E51192
:10252000591E84F8E621FDF76FFE022309F1070228
:10253000214684F8EC316FF0550384F8EDA1304664
:1025400084F8FF31012384F8EEA184F8EFA184F828
:10255000FEB100F070F901232146304609EB030279
:1025600000F069F9149B0021204623F4FF7222F049
:1025700001023DF047FD032F40F09280F8232370C5
:10258000FF236370A370E37023716371A371E37120
:1025900023726372A3720F23E372059B2146009A94
:1025A0003046AB4228BF2B469A4600F044F901461C
:1025B00000287FF462AE4FF4007220463DF022FD09
:1025C000009BB5EB0A0553440093E6D1019B032F12
:1025D00008BF43460193019B2146059A304693422A
:1025E00028BF1346009A1D4600F025F900287FF405
:1025F00044AE009B2B440093019B5B1B0193EAD1EB
:10260000032F56D0099BB3F5803F54D2022F14BF3D
:1026100001250425029B002B4FD0002201232146D7
:10262000304600F0F9F8024600287FF426AE029BFF
:1026300004EB031383F8B25101232146304600F026
:10264000FAF800287FF419AE00223046114600F057
:1026500007F9003018BF0120F7E5514604F12000CA
:10266000FDF7D2FDE2E656F04DFA014604F12700EF
:10267000FDF7CAFDC5F3072304F12B02A575E37529
:10268000802384F82430292384F826302C4B03F14E
:10269000100153F8040B8B4242F8040BF9D109E7FF
:1026A000012F2849204618BF6FF00701FDF7ACFD48
:1026B00073E70C25AEE70625ACE7039B1B07C3D4E5
:1026C0004FF400720299204601273DF09BFC5523F0
:1026D000099A494684F8FE31AA234A4404F5E37076
:1026E00084F8FF31029B84F8BF7184F8BE3184F80E
:1026F000C13143F6C16384F8C07184F8C251B2FBA2
:10270000F3F2FE2384F8C52184F8C331930843F023
:102710003F0384F8C431FDF777FD099904F5E570AE
:10272000FDF772FD3B46029A87E703208DE50A20FC
:102730008BE5112089E500BF3E8E08084A8E080807
:102740005E8E0808F8FFFF00BEF1000F3FF4A1AD58
:10275000002B5BD14FEA5A452D48012330F8021F68
:1027600019B1A9427FF6FEAD00212A4FBAFBF3F062
:102770008500A0F57F40F63805F20725B8424FEAFC
:1027800055253FF686AD98464FF0200B0B460327A4
:102790000021019109EB0B01DDF820C0032F00910E
:1027A000019908BF009A05EB0100009908440CF15B
:1027B000FF31CCF1000C014401EA0C01A1EB000156
:1027C00005BF52188B446D18114608BF0091C9EB24
:1027D000081108448245FFF45CADAAEB0B01019A95
:1027E000032FA1EB0501A1EB0201B1FBF8F204926A
:1027F0007FF4BDAD4FF6F5718A423FF6E8AD002B90
:102800007FF447AD5FEA58033FF443AD1946ACE7A8
:102810002E8E0808FFFFFE0F10B50C4611461A4613
:1028200038B1234604303CF07FFE003018BF012051
:1028300010BD0420FCE710B50C4611461A4650B1F5
:10284000234604303CF094FE10F11E0F05D00030FA
:1028500018BF012010BD0420FCE70220FAE70000A9
:1028600070B50D4614460646002833D001F0070324
:10287000234AD15C00292FD0002204303CF0A2FE74
:10288000062D27D8DFE805F008050A1626191900D5
:1028900006202AF039FE2060002070BD062805D1F0
:1028A0004FF4007323802388B360F5E72AF02CFEF1
:1028B0002080F8E701232360EEE7062801D04308D3
:1028C00006D1336A002B0CBF042300232370E3E7F7
:1028D0000123FBE70420E0E7062DFBD801A353F812
:1028E00025F000BF9928000891280008A1280008B9
:1028F000B5280008D5280008C3280008C328000808
:10290000E0BD0708086833F094B9000037B51D46EC
:10291000043001AB1446FEF76BFF38B1064B1B5C6D
:102920004FF0FF342B60204603B030BD019BA34223
:10293000F9D01C23F4E700BF20BE070813B51C46DE
:10294000043001ABFEF7C4FE30B1044B1B5C4FF00A
:10295000FF30236002B010BD0198FBE720BE0708DE
:102960002DE9F8438146506890460F46002430F028
:1029700009FD254A013810F8013FD3B92C201DF07C
:1029800099FB06460546D8F8000046F8047B30F06F
:10299000F9FC31460246E3B209F14400FEF7CEFDF0
:1029A000074640B328461DF09FFB184BD85D29F021
:1029B0009BFF722B13D008D8612B19D0622B0CD03F
:1029C0002B2BD8D144F00304D5E7772B0AD0782BF2
:1029D0000BD0742B08BF1746CDE70D4FCBE744F063
:1029E0000104C8E744F00A04C5E744F00604C2E75E
:1029F00044F01204BFE7E30603D529693046FFF728
:102A0000A6F82846BDE8F88370BE070820BE070870
:102A100034BE070830B587B005460846114603ACFA
:102A20001A46064B0194009303232AF059FA2246D2
:102A300029460020FFF794FF07B030BD08BE070805
:102A40001FB50623CDE9011201AA03490393FFF73D
:102A500087FF05B05DF804FB70BE070870B50C4633
:102A6000054608462AF0C6FC234602460249284687
:102A7000BDE8704000F0B8BFFCBD0708022970B582
:102A8000044615461E4613D15368012B0AD0022B6B
:102A90000CD01BB91168201DFFF759F8A3692B60F2
:102AA000002070BD81692B681944F4E70169FAE7D9
:102AB00001290AD10430FEF759FF0028F0D0084B55
:102AC0001B5C33604FF0FF30EBE7042906D143680D
:102AD000002BE5D00430FEF780FFEEE71623F0E789
:102AE00020BE07080000000007292DE9F74F9DF8D8
:102AF000305011D8012906D93F23013000F8013C9C
:102B00000023037001E00029FAD1012994BF0020BD
:102B1000012003B0BDE8F08F10EE904A002C25DABA
:102B2000B4EE400BF1EE10FA20D6B1EE400B2D259D
:102B3000441C0570B0EEC07B02F0200E01905FFADD
:102B40008EF59FEDCF6BB4EE467BF1EE10FA13DD00
:102B500085F04903E11C237085F04E0385F046059E
:102B60006370A5700023081A0B70D2E715B1441CDE
:102B70000570DFE70446DDE7B4EE400BF1EE10FA36
:102B800008D745F04E0385F04105E11C23706570C0
:102B9000A370E7E7002B42F0200201F1FF31A4EB24
:102BA0000005B8BF0623672AA1EB050140F08E801F
:102BB000B5EE400B002B08BF0123F1EE10FA00F038
:102BC000C880B7EE007BB4EEC70BF1EE10FA40F10F
:102BD000EE800026DFF8C0C24FF48077DFF8BC92A9
:102BE00035469FEDA96BB4EEC60BF1EE10FAACBF03
:102BF0004FF031084FF03008BCEC025BB4EEC05B24
:102C0000F1EE10FA06DD09EB060A3D449AED005B91
:102C100020EE050B08367F10482EEDD1B4EEC70B21
:102C2000F1EE10FA40F1A680B4EEC60BF1EE10FA08
:102C3000C0F29B80002DB7EE000B0CBF2B272D2779
:102C4000662A05D0672A40F0A880042D00F3A580ED
:102C5000672A84F8008004BF05F1FF369B195E1CCB
:102C60008E42A8BF8B1E002B40F086806621013467
:102C70001E461F460091662A40F01281AE4280F245
:102C80006B81F7B1632D4FF00A014EF0450E67706E
:102C9000CABF6423A01CE01C84F800E0C2BF95FBFF
:102CA000F3F33033A370044695FBF1F393FBF1F299
:102CB00001FB135501FB12323035303204F8022B80
:102CC000457000232370019BE01A22E7B5EE400B0C
:102CD000F1EE10FA7FF475AF662A3AD15D1C002739
:102CE0008D42BC463D46A8BF8B1E66215E1C0091EE
:102CF00023EAE3730099652940F0B6805E1CB2EECA
:102D0000046B4FF000084FF02E0A4645B3DDBDEED0
:102D1000C07B04F1010917EE101A0029ABBF17EEB2
:102D2000101A302101F1300B2170A8BF84F800B0D7
:102D3000E04504D11BB104F1020984F801A0B8EE0A
:102D4000C77B08F101084C4630EE470B20EE060B1E
:102D5000DBE75D1D009200268D42A8BF8B1F652A10
:102D600078D03746B4463546C2E7B2EE047B01352B
:102D700020EE070B2D2763E72E211E46023404F8B0
:102D8000011C3021013D67D01EB937464FF0FF3C92
:102D900043E004F8011B013EF4E78E1F9E425FDC16
:102DA000672A5BD0CB1F00260092B446A0E700261E
:102DB000DFF8E8C04FF48077DFF8DC803546BCEC04
:102DC000027BB4EEC07BF1EE10FA06D808EB0609E0
:102DD0003D4499ED007B20EE070B08367F10482E0E
:102DE000EDD1FDEEC07B17EE906A092E04DD0135B2
:102DF0009FED277B20EE070B662A11D18D4212DA58
:102E00005E1901368E4204DB4B1B023B591C08BF86
:102E10000023EE18AC46002701366621009167E7D3
:102E2000652A40F094808E1F9E4200DCCB1F002656
:102E30002B276521B446F1E75E1D8E4200DB8B1F18
:102E40009D4204DB6721009100262B27ADE7691C1A
:102E50005B1ADEE72B2785E72F4697E73346A2E785
:102E600000260092B44645E7009967297FF447AFF2
:102E70000BB11E4643E70126334640E7AFF300801F
:102E8000FFFFFFFFFFFFEF7F1450FFFFFFFFEF3F4C
:102E90009A9999999999B93F386407088064070805
:102EA000B1EE047BB4EEC70BF1EE10FA26DB661E22
:102EB0004FF03009B04618F801C9BCF12E0F3BD0D5
:102EC000ACF1300ABAF1090F29D9701C0678302EFE
:102ED00014D190F801C0BCF12E0F31D100996629B0
:102EE0002ED02D2F80F800C0467027D1013D08BF9D
:102EF0002B272146884225D331210170672A7FF490
:102F0000C0AE002B3FF4BDAE23461C46013B14F877
:102F1000012C302AF9D02E2A08BF1C46B1E6BCF19C
:102F2000390F05D00CF1010C304686F800C0CDE712
:102F3000B04288F80190C9D04646BBE70135D8E7D2
:102F40000134D6E711F8016C01F80169D2E7672A6C
:102F50003FF472AF009277E7B1EE047BB4EEC70B9B
:102F6000F1EE10FAA3DA8CE608B5044631B1054B50
:102F70008A6B0360002309682CF00EFB20461DF0CD
:102F800067F800BF0C7507082DE9FF471F4601923F
:102F9000461812B1023A222A34D80546B5422C46C8
:102FA00039D2207801351EF0E7F980460028F5D1A6
:102FB00023782B2B29D12C46311B204601AA27F040
:102FC000C4FF25180024A946B1454B4626D3B8F1C5
:102FD000000F00D06442640044F00104AB4209D009
:102FE0001D46B5422B4642D2187801351EF0C4F971
:102FF0000028F6D12049019A20482CF091FA394650
:10300000FFF7B2FF1E4829F087FA2D2B04BF2C468C
:103010004FF00108D0E74FF00008CDE719F8012B79
:10302000A2F1300ABAF1090F09D95F2ACCD042F0D7
:103030002002A2F161011929C9D8A2F1570A019908
:103040005145C4D9204636F03BFD28B9019B03FB0E
:1030500004A494EA4403B7D504A8019B4246711B1B
:1030600040F8045D2DF04AFC039B0446B6E7C1D14D
:10307000204604B0BDE8F087E3640708FC75070844
:10308000CE640708000000002DE9F04F2DED048B01
:1030900083B09146461804460093109B0193B442B6
:1030A000254680F02781287801341EF065F9824694
:1030B0000028F4D12B782B2B09D125468346B44226
:1030C0000CD300239FED929B9A4619467FE02D2B4F
:1030D00003D125464FF0010BF1E783462B7843F0EF
:1030E0002003692B31D1AB1C9E4240F206816B78E4
:1030F00043F020036E2B40F00081AB7843F02003B7
:10310000662B40F0FA80EB1DEC1C9E421AD9EB783E
:1031100043F02003692B15D12B7943F020036E2B4C
:1031200010D16B7943F02003692B0BD1AB7943F0BD
:103130002003742B06D1EB7943F02003792B01D1C6
:1031400005F108049FED748B14E06E2B58D1AB1C75
:103150009E4240F2D2806B7843F02003612B40F016
:10316000CC80AB7843F020036E2B40F0C680EC1C83
:103170009FED6B8BBBF1000F01D0B1EE488BA542E8
:1031800009D0B442234680F09580187801341EF0AF
:10319000F3F80028F5D1684968482CF035F9019911
:1031A000FFF7E2FE0220274697F800C07C1CACF136
:1031B000300EBEF1090F45D802282FD1604FB94219
:1031C00001DC08FB01E1B442EDD302B149420B44FA
:1031D00013F59A7F05DC03F233139FED537B29EE41
:1031E000079B13F1160F5AD35B42B2EE040B01EEAC
:1031F000103AB8EEC11B40F00FFD89EE008BB9E725
:1032000000222F46B2EE045B4FF00A081346114627
:1032100010469FED3F9B9FED466BC5E7B4EEC69B06
:10322000F1EE10FA0BD507EE90EA0128B8EEE77B35
:10323000A9EE057BB0EE479B2DD1013BC3E728B932
:103240000133C0E720B9BCF12E0F03D10120BAE74A
:10325000022813D04CF0200EBEF1650F0ED1A6420D
:1032600053D978782B2804D1BC1CB44293D00220C7
:10327000A9E72D2896D1BC1C0122F6E7B9F1000F71
:1032800004D04CF0200EBEF16A0F06D0BCF15F0FE7
:1032900099D03C4699E7002095E7CA4695E707EEA6
:1032A000903AB2EE040BB8EEE71B40F0B5FC29EE05
:1032B000008B5FE77FF46FAFBAF1000F0AD0B0EE7A
:1032C000481B9FED130B03B0BDEC048BBDE8F04F22
:1032D0002BF038B9009B23B1B0EE480B9FED0C1BCF
:1032E000F1E7B0EE480B03B0BDEC048BBDE8F04F46
:1032F0002CF066BA4FF0000BE3E6BBF1000F3FF491
:103300004AAF2C469FED028B37E73FF444AF5CE7B2
:103310000000000000000000000000000000F07F3E
:10332000000000000000F87F0DC6402C18FA3100A4
:103330005A62D7D718E77469C8640708FC7507088C
:1033400064666606084611464CF0E0BA70B505465C
:1033500008460E463CF08CFE044620B102466B68DF
:10336000314628689847204670BD00002DE9F74F88
:10337000019191469DF8301006460D9A11F0DF0F2D
:10338000A2EB09023DD030290CA9244F0EBF4FF00B
:1033900010080F464FF0010813F0800435D00224C6
:1033A00092FBF4F4151B002C36DDA246D045C34633
:1033B00073683946A8BFD3463068AAEB0B0A5A4651
:1033C0009847BAF1000FF1DCB9F1000F05D04C4479
:1033D00073684A46019930689847002D0DDD2C44EA
:1033E000A845C14673683946A8BFA9463068A5EB11
:1033F00009054A469847002DF2DC204603B0BDE897
:10340000F08F074F4FF01008C6E713F0010501D108
:103410001446C8E71546D7E70024D5E71055070836
:10342000FF5407082DE9F043074689B00020119D9D
:103430009DF84880139E8DF80F0002B3814219DA7F
:103440002D2249428DF80F20109A08AC0DF1100E74
:10345000A2F10A0CB1FBF3F003FB10120146092A9A
:103460008CBF6244303204F8012D74450DD0002821
:10347000F0D10AE0A80726D52B228DF80F200029CD
:10348000E2D108AC302304F8013D15F040099DF865
:103490000F301CD023B301222B460DF10F0138460B
:1034A000013ECDE90082FFF761FF814608AA2B4665
:1034B00021463846121BCDE90086FFF757FF4844E6
:1034C00009B0BDE8F0836A07D9D52022D5E7002BE3
:1034D000ECD004AA9442E9D904F8013C013CE5E7A8
:1034E0009946E3E72DE9F04F91B082461C46C807A4
:1034F0009DF86C300F4691461A9D0593DDE91C86B8
:103500000BD4B90703D13A68804B9A4205D03846AC
:1035100029F0FAFF400040F0010715F0810306D1C1
:10352000059A302A03D1B045B8BFB0461E4638468A
:103530000DF1200B2DF0F8F8002818DBAA0712D5A2
:103540002B238DF820300DF12103E1B2EC061DD5BF
:10355000B9F1020F0DD130201A4602F8020B481CB7
:103560005870134612E06B0701D52023E9E75B464C
:10357000EBE7B9F1080F3FD1A8054FF030021A7000
:1035800049BF01F10E0201335A700233002215F0D7
:10359000200F0CA81A70A3EB0B0309904FF010003A
:1035A000049314BF2C231346012E8DF81F20C8BF8F
:1035B00045F0400515F04004CDE90A02CDE90213BB
:1035C00024D03B460AA909A8CDE900920BAA2CF009
:1035D00089FF037881462D2B40F087800B9C012EBC
:1035E00000F101098DF81F3004F1FF340B9400F352
:1035F000898000273C4636E0B9F1100FC6D1302053
:103600001A4602F8020B01F11700A9E708AB0BAA52
:103610000AA909A8CDE900933B462CF063FF012ECF
:1036200081461FDD0B9CB442B8BF3446A04516DD71
:1036300015F00107A8EB040401D02746002425F06B
:1036400001054CB1202301943149504600930023D9
:103650001A46FFF78BFE04463023059303E000274C
:103660003C46ECE7274669061DD59DF81F305BB147
:10367000002301220DF11F01504608F1FF38CDE96A
:103680000032FFF773FE0444049B63B10023012260
:1036900059465046CDE90032049AFFF767FE049B75
:1036A0000444A8EB0308059B012ED8BF46460B9A9D
:1036B00049460093504601962B46FFF757FE0444B7
:1036C0004FB12023019712495046009300231A4618
:1036D000FFF74CFE044409980CAB984201D01CF053
:1036E00003FD204611B0BDE8F08F012E81DD0B9C5B
:1036F0009DF81F30B442B8BF344603B10134049B77
:103700001C4493E7B442B8BF3446F7E7647B07082C
:10371000E0BA08082DE9F04316468BB0804699467A
:10372000B207129F3CD416F0040F0CBF00232023D5
:1037300000930A46139B202102A8FFF7D5F9F30551
:1037400004460DD5431C1F2B0AD80AAA0021144495
:10375000252204F8202C0AAA1C461A4402F8201C30
:1037600016F040051ED09DF808302F2B4FF00003B7
:103770001AD8012202A94046013F013CCDE900329E
:10378000FFF7F4FD0DF10901054633462246404698
:10379000CDE90097FFF7EAFD28440BB0BDE8F083C0
:1037A0002B23C5E702A9F0E702A91D46EDE70000BB
:1037B0002DE9F04F814689B0144600254FF00A0BE1
:1037C0000E46334613F8012B82B9B14212D30B785F
:1037D000002B00F00181013120234FF000080F7809
:1037E0000E464A1C87B94FF0FF324CE0252AECD038
:1037F0001E46E6E7771AD9F80430D9F800003A46B1
:103800003D4498473146E2E72D2F03D148F00108A7
:103810001146E4E72B2F02D148F00208F8E7202FE9
:1038200002D148F00408F3E7212F02D148F008083C
:10383000EEE7302F20D148F040083B46E8E70BFB8D
:103840000727303F0E4611F8012BA2F1300009285E
:10385000F5D92E2AC7D172782A2A0FD0084600221D
:10386000064610F8011BA1F1300CBCF1090F0AD873
:103870000BFB0212303AF3E70027E3E72268023637
:10388000043422EAE27231786C2908BF01363178BB
:10389000002900F0A180642900F0818028D85029F7
:1038A0002DD00ED8A1F14500022840F28780D9F82A
:1038B000043001223146D9F8000098470135A2466C
:1038C0004AE062293BD04DD85829F0D14A1C21F05A
:1038D0000F0104F1040ACDF8048002F006020F394A
:1038E000CDE90237C9B2C2F110030091002260E0B5
:1038F000712942D00DD8672960D97029D7D104F138
:10390000040ACDF80480CDE9023761230093102327
:10391000ECE77529DAD07829D8D07329C7D1511CA2
:1039200004F1040A246805D1204604933CF0A0FB6E
:10393000049B02462146CDE90037434608E0226851
:1039400004F1040ACDE90037434642B10422244978
:103950004846FFF70BFD0544711C544630E705222D
:103960002049F5E7226808A904F1040A01F8042DAA
:103970000122CDE900374346EAE707A9206804F1B0
:10398000040ACDE904321DF0D0FA059A049B0146E1
:10399000501CCDE9003708BF079A4346D8E7CDE968
:1039A0000237612304F1040A0122CDF80480009358
:1039B0000A2321684846FFF735FDCCE7073448461F
:1039C00024F00704CDE90072424604F1080A94EDA0
:1039D000000BFFF79FFEBEE7284609B0BDE8F08F59
:1039E000F4540708F95407080EB403B503AA52F8B3
:1039F000041B0192FFF7DCFE02B05DF804EB03B09C
:043A0000704700000B
:020000040802F0
:10000000024B1A690260186100207047CCC90220B7
:10001000024B1A6912681A61704700BFCCC90220EE
:10002000C460056146618761C0F81C80C0F82090FB
:10003000C0F824A0C0F828B0C0F82CD080ED0C8BFC
:1000400080ED0E9B80ED10ABC0F808E0FFF7D8BF45
:10005000104A08B513690BB92EF0DEF9196858601B
:1000600011611846C468056946698769D0F81C8023
:10007000D0F82090D0F824A0D0F828B0D0F82CD018
:1000800090ED0C8B90ED0E9B90ED10ABD0F808E04E
:1000900001207047CCC9022010B50021044600F0B1
:1000A0007FFA18B914B120460CF022FA10BD0021D5
:1000B00000F076BA10B50121044600F071FA18B9C3
:1000C00014B120460CF014FA10BDFFF7E5BF10B5CF
:1000D00001220C4600F0AAFB18B914B120460CF01E
:1000E00007FA10BD00F0A2BB00F030BB2DE9F043D1
:1000F00000252A4C0326D4F8107200210131431840
:100100009A0803F00303BA5C5B0042FA03F303F0BE
:100110000303022BF2D00901D4F81C328A0803EB46
:10012000001009B300EB820103681A0719D1D4F853
:100130001C229A4215D89A1AD4F820724FEA121C3F
:100140009F424FEA92120CF003030AD9D4F810E24E
:100150005B001EF8028048FA03F707F00307012F3F
:1001600009D004308842DFD19DB1013D05F58A7385
:1001700034F81300BFE706FA03F33F2D05F58A793B
:1001800043EA08030EF8023005D824F819C00135F7
:10019000E7E7BDE8F083C4F82472E2E7CCC90220A7
:1001A00021F00F03002170B51C1A164E164DE40005
:1001B000C5F82032A6FB0464C5F81002640AA3EB5C
:1001C000841306192246C5F81442C5F81C32C5F836
:1001D00018621FF017FFA2000021D5F8180207329D
:1001E000D2081FF00FFF00234FF480314FF0FF3291
:1001F000C5F8B432C5F8A812C5F8B022C5F8AC32BB
:1002000070BD00BFF32C23FACCC90220034AB2F818
:10021000A8320133A2F8A832704700BFCCC902202F
:10022000034AB2F8A832013BA2F8A832704700BFD7
:10023000CCC90220034BB3F8A802003018BF01203C
:10024000704700BFCCC90220F8B51C4D002203271F
:10025000B5F8A8322C1D05F5F876C5F8AC220133A7
:10026000C5F82422A5F8A83254F8043F1A0718D17B
:10027000D5F81C22934214D39A1AD5F820121009EB
:100280008B424FEA921200F003030AD2D5F810C253
:100290005B001CF802E04EFA03F101F003010129B2
:1002A00002D0A642E0D1F8BD07FA03F343EA0E03F9
:1002B0000CF80230FFF71AFFF3E700BFCCC90220A9
:1002C00029B3F8B5041F174E032704EB810554F832
:1002D000043F1A0718D1D6F81C229A4214D89A1A49
:1002E000D6F82012100999424FEA921200F0030347
:1002F0000AD9D6F810C25B001CF802E04EFA03F1EE
:1003000001F00301012903D0A542E0D1F8BD7047F7
:1003100007FA03F343EA0E030CF80230FFF7E6FE98
:10032000F2E700BFCCC902202DE9F04F524E83B056
:100330000025D6F81412D6F8243289006BB3C6F81B
:100340002452F9B10024A208D6F8100204F00303E5
:10035000825C5B0042FA03F303F00303032B05D036
:1003600001348C42EFD3D6F82432E7E7204601343B
:10037000FFF7BCFED6F814128900A142E3D8D6F8E4
:100380002432DBE7B6F8A8320022013BC6F8B422DB
:10039000A6F8A83203B0BDE8F08F0029F2D09E463F
:1003A0004FF003084FF0020A1D4606E0032B56D01B
:1003B000012B20D001358D42E4D2AF08D6F810C20F
:1003C00005F003041CF807200CEB0700640042FA58
:1003D00004F303F00303022BE8D1BEF1000FE9D0D0
:1003E00008FA04F44FF0010E22EA04020270D6F873
:1003F00014128900DEE74FEAD50BD6F8181205F083
:10040000070911F80BC059444CFA09FE1EF0010F00
:10041000E6D02801D6F81C22135810449BB16A4636
:10042000B1210BF07FFA009A3AB10CF0A5FADDE9A0
:1004300000010CF077FA0CF0B5FAD6F8182202EBAE
:100440000B0112F80BC0012303FA09F32CEA030C89
:1004500081F800C0D6F81032D819DA5DC0E70AFA80
:1004600004F44FF0000E22EA04020CF80720D6F83C
:10047000141289009EE700BFCCC90220054B002161
:10048000B3F8A822C3F824120132A3F8A822FFF778
:100490004BBF00BFCCC90220404A0023D2F8201233
:1004A0002DE9F04FD2F81C421E46D2F810829A462F
:1004B000D2F81422091B43601C4601604FEA820CEB
:1004C00083609E46C36099460361194643611A469C
:1004D00083611F4698F800B07B004BFA03F303F0EA
:1004E0000303012B33D044D3022B02D10134013159
:1004F0004460013294450CBF012500250DD09308BE
:1005000002F0030718F803B07B004BFA03F303F083
:100510000303012B01D9002DDED0012931D002299E
:1005200002D1476901374761514501D98A46816146
:10053000012B10D07DB9930802F0030718F803B01F
:100540007B004BFA03F303F00303012BCBD10134FF
:1005500019464460CDE7B14502D94E46C0F80C902B
:10056000944512D124014FEA0E13C0E90143BDE8BE
:10057000F08F0EF1010E09F101091946C0F808E0EB
:10058000B7E7076901370761CEE793084FF0000925
:1005900002F0030718F803B09EE700BFCCC90220A1
:1005A0000F302DE9F04706095BD0674DB5F8A8324A
:1005B000002B56D1B5F8AA3201F00104002B0CBF74
:1005C0004FF0010E4FF0000E50D1D5F8B412D5F80F
:1005D00014728F4238D9D5F810C2481E00236044E7
:1005E0001AE001339E4252D912F00C0F1ED1013392
:1005F0009E4240F2A08012F0300F1CD101339E4287
:1006000040F29C8012F0C00F1AD101339E4240F29A
:1006100098800131B94217D210F8012F12F0030F60
:10062000DFD012F00C0F4FF00003E0D012F0300FCB
:100630004FF00003E2D012F0C00F4FF00003E4D0FF
:1006400001310023B942E7D3BEF1000F09D135F0E3
:10065000E8F9D5F8B412D5F814724FF0010E8F42B4
:10066000B9D84FF0000A5046BDE8F087D5F8AC2263
:10067000D5F8B0329A42A8D335F0D3F9D5F8B412F0
:10068000D5F814728F42ECD94FF0010EA3E7890020
:10069000CA1A012B01F1010E02F1010703D14FEA41
:1006A0009E03C5F8B432012307F003004FEA970810
:1006B000023298401CF80890914203FA00F343EA92
:1006C00009030CF8083012D34FF0020802F00303BC
:1006D0009008D5F810C201325B001CF800909142DE
:1006E00008FA03F343EA09030CF80030EED24FEAAC
:1006F0000718D5F81C92D5F8AC32AEEB070209EB1F
:10070000080A00211E4412015046C5F8AC621FF0D1
:1007100079FC6CB10023D5F81812FA0807F0070726
:1007200049F808300123885C03FA07F707438F5420
:100730005046BDE8F08789000131A9E78900023100
:10074000A6E789000331A3E7CCC90220F0B41C4E10
:10075000B6F8A83293BB88B3D6F81C320121D6F87C
:100760001872C01A0409C50904F0070C83097A5DE0
:1007700001FA0CF122EA010204F003017A55A508FE
:10078000D6F8B4220327D6F81002934238BFC6F831
:10079000B432C25C4900013407FA01F304F00301EA
:1007A00022EA03024B004255A508D6F81002425D2A
:1007B00042FA03F303F00303022BEBD0F0BC7047C3
:1007C000CCC9022010F00F031AD1174AD2F81C121C
:1007D000814215D830B4D2F82042844221D9401A3F
:1007E000D2F810120409800904F003050A5C6800BD
:1007F0000241184602F00302012A03D030BC7047C0
:1008000000207047013023189A0803F003038A5C24
:100810005B0042FA03F303F00303022BF2D0000162
:10082000ECE7184630BC7047CCC902208C46002843
:1008300000F086802DE9F84F894CB4F8A8520029C1
:1008400051D0002D50D1D4F81C120CF10F06D4F861
:100850001432A0EB010936094FEA830E4FEA19174B
:10086000791C8E4540F2F880D4F810A24FF00108B0
:100870004FEA910B01F003031AF80BB05B004BFA3F
:1008800003F303F00303022B32D023B9013508EB45
:100890000503B3422ED346454ED02FD3454482465E
:1008A000B542C0F0848007EB08003744874210D976
:1008B000022100F003038508D4F8102201305B0008
:1008C00012F805C0874201FA03F343EA0C035355BB
:1008D000EFD1A6EB08020AEB0810002155461201E1
:1008E0001FF090FB01E07DB300252846BDE8F88F9E
:1008F00008F1010801318E45BAD1CCE73E444FF0F2
:1009000003094744354605F003034FEA950ED4F832
:10091000101201355B0011F80EC0AF4209FA03F363
:100920002CEA030301F80E30EDD1B608D4F8B43246
:100930009E4238BFC4F8B46205462846BDE8F88F29
:1009400001466046FFF72CBED4F81C120122D4F8F1
:1009500018624FF0030C401A0509C10905F007079A
:100960008009735CBA40AF0823EA0203735405F0B0
:100970000301D4F8B432D4F81062984238BFC4F8F6
:10098000B402325C490001350CFA01F305F00301B1
:1009900022EA03024B00F255AF08D4F81062F25D70
:1009A00042FA03F303F00303022BEBD09CE74FEA78
:1009B000D919D4F8183207F0070713F8091039418C
:1009C000002A91D001F001016046FFF7E9FD0546DC
:1009D000002889D04FEA081251461FF0CFFAB4F828
:1009E000A832002B81D1D4F81C020122D4F818724D
:1009F0004FF0030EAAEB00000609C10906F0070C30
:100A000080097B5C02FA0CF24FEA960C23EA02039F
:100A10007B5406F00301D4F8B432D4F81072984233
:100A200038BFC4F8B4023A5C490001360EFA01F34B
:100A300006F0030122EA03024B0007F80C204FEAFC
:100A4000960CD4F8107217F80C2042FA03F303F056
:100A50000303022BE8D048E74FF001081BE700BF73
:100A6000CCC90220424B2DE9F04FD3F820120024CC
:100A7000D3F81C2285B0D3F810E2A046D3F8143284
:100A80008A1A27469EF80010A2464FEA830CA14618
:100A90002546A3462046264602940392730041FA57
:100AA00003F303F00303012B32D04FD3022B02D107
:100AB00009F101090135013060450CBF0122002216
:100AC0000DD0830800F003061EF80310730041FAEE
:100AD00003F303F00303012B01D9002ADED0012D1B
:100AE0003AD0022D02D1029901310291AC4238BFB5
:100AF0002C46012B10D07AB9830800F003061EF8AB
:100B00000310730041FA03F303F00303012BCCD16C
:100B100009F101091D46CEE75F4538BF5F466045D4
:100B20001DD14FEA0A10039A4FEA091311490090A8
:100B30001148E2F759FF029B424610490E48CDE9A1
:100B40000047E2F751FF05B0BDE8F08F0AF1010A56
:100B50000BF1010B1D46AEE708F10108C6E783085B
:100B60004FF0000B00F003061EF8031096E700BFDD
:100B7000CCC9022068F90608EC5407088CF906086D
:100B80002DE9F047534E5449D6F81C225348E2F75A
:100B90002BFFD6F814325FEA830C00F08780002424
:100BA000DFF87091DFF870814C4F19E0D6F8103201
:100BB00013F80A3043FA05F505F00305022D71D04C
:100BC000032D6DD0012D46D02E2245493846E2F73F
:100BD0000BFFD6F8143201344FEA830CA44565D9D3
:100BE00004F00305A0064FEA940A4FEA4505DDD15B
:100BF000A44529D9D6F8100210F80A302B419907DC
:100C000022D1234604E0415C41FA02F292074BD123
:100C1000013303F0030263454FEA93014FEA4202B6
:100C2000F1D1ACEB04027F2A0ED992092D49384646
:100C30002CF03F04E2F7D8FED6F81432B4EB830F61
:100C400034D24FEA940A002509EA04124146384694
:100C5000E2F7CAFEAAE7D6F81C2223012249D2589D
:100C60008A4229D0214B9A422AD0214B9A4229D03C
:100C7000204B9A4222D0204B9A421FD01F4B9A42BF
:100C800022D01F4B9A421FD01E4B9A421ED01E4BA1
:100C90009A421DD01D4B9A4214BF68224D2294E700
:100CA0006D2292E73D2290E79C46BAE718490B482F
:100CB000BDE8F047E2F74ABB542286E7532284E7B7
:100CC0004C2282E7442280E741227EE746227CE7ED
:100CD00042227AE7CCC9022020F90608EC54070822
:100CE00060F906083CF906088C8B0708D07C0708D9
:100CF000286F070840860708F0880708D06A0708A9
:100D0000946A070810770708A0770708A47E0708E9
:100D100064F90608F0FF0F0058F90608054B5B69F7
:100D20005A68824204D8801A043053F82000704771
:100D30001B68F5E7CCC90220014441F20553884203
:100D400004D398B2002808BF0120704703EB431377
:100D500010F8012B5340F2E7034B044A5A6100227A
:100D6000C3F8F421704700BFCCC90220F0F907088E
:100D70002DE9F84F82468946FFF7DEFF134B834685
:100D80005C690CB920461CE004F11007E6683D469A
:100D900007EB8606B54201D32468F2E7A84658F867
:100DA000040B03885B450ED183784B450BD14A4633
:100DB000514603301FF03AF928B9ED1B606800EB8B
:100DC000A500BDE8F88F4546E4E700BFCCC9022086
:100DD0002DE9F04780460E46FFF7CAFF024600287D
:100DE00040F08180FF2E03D9404941480AF010FEAF
:100DF000404C351DD4F8F401A0B1D4F8FC31D4F83E
:100E0000F8112B448B420DD92944FFF76BF90746A3
:100E1000F0B90246D4F8FC11D4F8F401FFF762F9F6
:100E2000C4F8F471D4F8F431F3B9802D2F4638BFEB
:100E300080273846FFF73BF9C4F8F40178B9284613
:100E4000FFF735F9C4F8F40140B928460BF050FB20
:100E5000D4F8F8312B44C4F8F831E3E72F460023E7
:100E6000C4F8F871C4F8FC31D4F8FC913146D4F8D8
:100E7000F4A140464D440AEB0907C4F8FC51FFF7C2
:100E80005BFF0AF80900000ABE70324641463E4444
:100E90004FF000087870F81C1FF070F886F8038097
:100EA0006369D3E90253AB4213D36D000A2D38BFF7
:100EB0000A25281D8000FFF7FAF80028C5D06269CE
:100EC00053680260D268C0F80C801344C0E9013551
:100ED00060616369D9685A68481C0431013AD86076
:100EE000024443F821701046BDE8F087A7150708B3
:100EF00058740708CCC9022010B504461FF0B8F892
:100F000001462046BDE81040FFF762BF08B5FFF775
:100F100005FF008808BD08B5FFF700FF807808BD11
:100F200008B5FFF7FBFE033008BD08B5FFF7F6FE76
:100F3000837803300B6008BD2DE9F8431D4600237C
:100F400007468846036016460B6013602B60164BFD
:100F5000DFF858905C690CB14C4505D12B683268BC
:100F600013442B60BDE8F8833B6801333B60E268C3
:100F7000D8F800301344C8F8003004F11003E268D8
:100F800003EB8202934207D32046FFF71BFC2B683A
:100F9000246818442860DEE753F8041B8878316819
:100FA000043101443160EDE7CCC90220F0F90708B3
:100FB0002DE9F8430E4B0F4F5C69DFF83C80DFF8FA
:100FC0003C900CB1BC4201D1BDE8F88304F110059E
:100FD000E36805EB8306B54201D32468F1E755F8D1
:100FE000042B414648460332E2F7FEFCF3E700BF1C
:100FF000CCC90220F0F90708A0150708EC5407082F
:1010000030B50023202411F8012F0AB9027030BD39
:10101000120600F101051ED50BB1047028460B78AD
:10102000124A03F07F0363B9013A12F8013F054603
:10103000013013F0800F0BD003F07F032B700123DE
:10104000E1E712F9015B002DFBDA013BDBB2EAE7D5
:1010500000F8013CE9E7012B04BF047028460B7837
:10106000013000F8013C0223CDE700BFBEFA0608BC
:1010700038B54468054603680C449C4210D9037B8C
:10108000DB0703D5002107480AF0C2FC1034806852
:1010900024F0070408342146FFF719F82C60A860F3
:1010A00038BD00BF5874070870B504460E46114697
:1010B0001546FFF7DDFF31462A46D4E901301844D2
:1010C0001EF088FF62682A44626070BD70B5466891
:1010D00004468E42354628BF0D460121FFF7C8FF62
:1010E000A368681C721B591918441EF073FF6368CB
:1010F000A06801332844636070BD38B504460025FC
:10110000002914BF0846012065602060FEF7C4FF77
:10111000237BA06065F30003237338BD38B5054613
:101120000C460131FFF7E9FF6C6038BD0023016018
:10113000C0E90132037B43F00103037370470000F1
:1011400038B514460546FFF7D8FF024B25606360AB
:1011500038BD00BFA9100208037BDB0710B50446A9
:1011600002D48068FEF7C0FF0023A36010BD38B52D
:1011700005461020FEF790FF04462946FFF7BDFF05
:10118000204638BD10B5044650B1037BDB0702D4BE
:101190008068FEF7A9FF2046BDE81040FEF7A4BF17
:1011A00010BD000038B5037B04460D46DB0703D5B0
:1011B000002107480AF02CFC016880682944FEF7EA
:1011C00086FF2368A0601D441844256038BD00BF19
:1011D0005874070838B504460D46FFF749FFD4E9AF
:1011E00001301D441844656038BDD0E9002310B5B6
:1011F0009A42044602D10121FFF7D4FF0021D4E92D
:101200000132D154A06810BD10B50C460121FFF782
:10121000E1FF047010BD7F29F8B50C46CEB204D8AA
:101220000121FFF7D7FF0670F8BD06F03F06B1F5C4
:10123000006FC1F3871546F0800607D265F03F05C1
:101240000221FFF7C7FF46700570EDE705F03F0587
:10125000B1F5803FC1F3073745F0800508D203217F
:10126000FFF7B8FF67F01F03457003708670DBE778
:101270000421A40CFFF7AEFF07F03F0364F00F0456
:10128000857063F07F03C67004704370CCE738B597
:1012900005460C4608461EF0EBFE2146024628464F
:1012A000BDE83840FFF700BF10B51446FFF70EFF4A
:1012B000047010BD10B51446FFF708FF047010BD90
:1012C00043688B4234BF00235B1A4360704738B5D4
:1012D0001546426804460B468A4203D929448A428D
:1012E00001D8436038BD8068D21A0144521B1844AB
:1012F0001EF070FE6268521B6260F3E703781A0604
:101300000AD503F07F034022134207D110F8012FC2
:1013100002F0C001802905D01846704723EA020375
:101320005208F1E702F03F0242EA8313EEE7421C63
:1013300010460132037803F0C003802BF8D07047C9
:101340000023814201D81846704711F8012D02F0A0
:10135000C002802A18BF0133F3E70144034600208E
:1013600099421A4600D870471278013302F0C00241
:10137000802A18BF0130F3E77F289DBF024B185C1D
:10138000C0F3400000207047215507087F289DBF0B
:10139000024B185CC0F3C0000020704721550708BD
:1013A0007F289DBF024B185CC0F38000002070476F
:1013B000215507087F289DBF024B185CC0F38010A1
:1013C00000207047215507087F2809D8064B1B5C71
:1013D00013F00C0F06D1A0F15F035842584170473B
:1013E0000020704701207047215507087F289DBFC6
:1013F000024B185CC0F3001000207047215507080D
:101400007F289DBF024B185CC0F34010002070473E
:101410002155070808B50246FFF7E8FF00B1203262
:10142000104608BD08B50246FFF7EAFF00B1203AB2
:10143000104608BD3038092884BF20F02000073846
:10144000704710B501440246E5240020914203D8BC
:10145000B0FA80F0400917E012F8013B30B103F018
:10146000C003802B11D10138C0B2EFE7BF2B09D9DF
:10147000F72B09D8DB0803F0060344FA03F303F063
:101480000300E3E71B06E1D510BD0020FCE70239AD
:1014900081420B4603D31A880239002AF8D002335E
:1014A000181A4010704770B51C09944216D2121BCE
:1014B00001EB440103F00F0315460E46012D31F8F0
:1014C000024B18BF3468013D24FA03F4A4B220F89B
:1014D000024BF2D104B9013A104670BD0022FBE77D
:1014E000F0B5059E0024921B2546A6420ED176003B
:1014F000002384190E449A4213D104EB420315B120
:10150000023324F81250181A4010F0BD31F814704C
:1015100033F814C067443D4420F814502D0C0134B6
:10152000E3E736F813100D4424F813502D0C013363
:10153000E1E7F0B4049E0025921B2C46AE420AD18E
:101540007600002385190E449A420FD105EB420123
:10155000F0BCFFF79CBF31F815703C4433F81570B0
:10156000E41B20F8154024140135E7E736F8131082
:101570000C4425F8134024140133E5E72DE9F0432A
:10158000079C551EDDF828E0023984464FF6FF78A7
:10159000A4EB0209DDE908766C1C0AD100EB4201DC
:1015A0001FB10123023120F81230BDE8F043FFF7EC
:1015B0006EBF31F8024F4444264409EB0504AC42A7
:1015C00005F1FF3597BF1C884FF6FF740233444482
:1015D000744486EA040E360C17FA8EF74FEA144E5E
:1015E0002CF8027B3F0CD7E7022938B538BF02211F
:1015F000044680680D4618B12368B1EB930F07D9F4
:101600006900FEF764FD2368A06065F39F03236013
:1016100038BD38B505460C20FEF73EFD03782A7824
:10162000044662F300036FF34103037028682368E4
:10163000C0F39D0060F39F03400023606B6863600C
:10164000FEF72AFDA0602A68A968C2F39D02520035
:101650001EF094FC204638BD013910B54B1C01D159
:10166000002010BD30F8113032F811401B1B002B48
:1016700004DB01F1FF31F1D00120F2E74FF0FF3040
:10168000EFE710B5044638B18068FEF72DFD20461F
:10169000BDE81040FEF728BD10BD38B505460C4624
:1016A0000221FFF7A1FF002C2B78BBBF644243F05F
:1016B00001036FF300032B70A8BF2B7000236B6036
:1016C00004B938BDD5E90132581C686022F81340CE
:1016D000240CF5E70023C0E900338360704728B18C
:1016E00003789B0702D48068FEF7FEBC704738B5CC
:1016F00005460C464968FFF777FF22782B78A868E3
:1017000062F300032B706368A1686B606268BDE8D8
:10171000384052001EF032BC034609B95960704788
:10172000FFF7BBBF08B5FFF7D5FFBDE80840FFF7DF
:10173000F3BF30B4057805F0FE0545F002050570ED
:10174000056862F39F0500220560C0E9012130BCF5
:101750001946FFF7E1BFF8B504469DF8185004217B
:101760001F461646FFF740FF23787DB1002E77F124
:1017700000020BDA764243F0010367EB4707237060
:101780000021616056EA070304D1F8BD6FF300033E
:101790002370F5E7D4E901104D1C656020F8116055
:1017A000310C380C41EA074107460E46EAE72DE9BD
:1017B000F84F53EC102B1A460378074610EE101A18
:1017C000D40F64F30003037047F6F07313EA124476
:1017D00003D100237B60BDE8F88F9C42F9D0C2F3AF
:1017E0000A53A3F2FF36002EF3DB04D10121BDE83A
:1017F000F84FFFF752BFA3F2EF384FF01009C2F3D2
:101800001305332E10EE104A8A4645F4801B98FBD0
:10181000F9F84FDCC6F13406C6F12001A6F1200329
:1018200024FA06F22BFA06F60BFA01F12BFA03F36F
:10183000B34600260A43B14642EA030A4146384607
:10184000FFF7D2FEC7F80480B9F1000F05D04FEAC8
:1018500049020021B8681EF0D5FBC6B10AFA06F2AB
:10186000C6F11006BB68C6F1200123F819202AFA38
:1018700006F2A6F120030BFA01F12BFA06F609F1A4
:1018800001092BFA03F30A43B34642EA030A4FEA7B
:1018900049034FEA480843459DD0BA684FEA1B41C7
:1018A00022F803A04FEA1A42023342EA0B428B4667
:1018B0009246F0E70C36A3F2334306F00F0693FB93
:1018C000F9F9BBE72DE9F8438F18C2F35B02044630
:1018D00098460D46511C089EFFF786FE2278B8F107
:1018E000000F0CD042F00102002328461FFA86FCAC
:1018F00022706360B84205D3401BBDE8F88368F3EB
:101900000002F1E7027800F1010EA2F13003092B89
:1019100005D9A2F14103192B15D8A2F13703B3421F
:10192000EAD2D4E9010180468946B8F1000F11D10D
:1019300001EB400213B1023221F81030521A704606
:1019400052106260D6E7A2F16103192BD4D8A2F13C
:101950005703E4E7B9F8002008F1FF3802FB0C3325
:1019600029F8023B1B0CE0E7F8B5044615461E4675
:10197000C1B1531E4FF0FF371E44E90020460F311E
:101980000909FFF731FE237800216FF3000361603E
:1019900023704DB9D4E9011000EB4101FFF777FD49
:1019A0006060F8BD0127E8E700230F290ADC3278E0
:1019B000013D3E4402FA01F201F1080143EA02034B
:1019C0009BB2F2D162681039501C6060A06820F8A8
:1019D0001230DEE70A46416838B5044609B9506856
:1019E00090B11378257803F0010305F00100181A6F
:1019F0000AD15368994208D30AD89268A068FFF7C1
:101A00002BFEEB0748BF404238BD4FF0FF30F8E7F0
:101A10000120F6E7884210B5044601D0FFF767FEC3
:101A200023786FF30003237010BD884210B504467D
:101A300001D0FFF75CFE2378C3F30002C2F101027C
:101A400062F30003237010BD88421FB5044601D025
:101A5000FFF74DFE626862B901212046FFF7C4FD21
:101A60000123A26813806360237843F0010323708D
:101A700010E02378D9070FD56FF30003A168237016
:101A800001230846ADF80E3000930DF10E03FFF769
:101A900050FD606004B010BD511C2046FFF7A4FD4E
:101AA0000123D4E90121ADF80E30009308460DF171
:101AB0000E03FFF715FD6060D6E72DE9F0470E46EF
:101AC00049680546174601B12AB931462846BDE89E
:101AD000F047FFF70CBE02F10F0424092144FFF781
:101AE00083FD17F00F026FF0004E6FF0010CAB6832
:101AF00008BF1022D6E90110C2F1100267180CFBD2
:101B000001FC07EB0E088E444FEA48080CEB4E0E22
:101B1000C4448644002003EB0C09F1B9D04004F121
:101B2000004208F1020823F80C006FF00103013AAB
:101B300003FB04935200023318461EF063FA034677
:101B4000434417B133F8022D92B12B786F6032788D
:101B500062F300032B70BDE8F0873EF811A04AEA5B
:101B6000000020FA02FA000429F811A00139D4E794
:101B7000013FE6E7F0B50E46496885B005461446D4
:101B800001B12AB931462846FFF7B1FD05B0F0BDD5
:101B9000FFF72AFD2346A868D6E90121FFF783FC59
:101BA0002B7868600246317861F300032B70DB0705
:101BB000ECD5002321097768ADF80E309F4201D0A3
:101BC0008B4212D18F42E1D9B36804F00F0433F88D
:101BD0001110012303FA04F4013C214218BFADF8AF
:101BE0000E30BDF80E304BB9D0E7B06830F81300B6
:101BF00078B101238F42ADF80E30E5D8A9680123F2
:101C00004AB1009308460DF10E03FFF769FC6860C6
:101C1000BCE70133D2E70B806B60B7E773B553685D
:101C20000C46496806461546994206D308D892687C
:101C3000A068FFF711FD002802DA23462C461D4656
:101C400023782A7861685340DB0713D4013130468A
:101C5000FFF7CAFC6B68B0680093AB68D4E9012158
:101C6000FFF73EFC33787060227862F30003337034
:101C700002B070BD3046FFF7B7FC6B68B0680093E8
:101C8000AB68D4E90121FFF754FCEBE7F7B55368E3
:101C90000C46496806461546994206D328D89268EC
:101CA000A068FFF7D9FC002822DA234601272C463A
:101CB0001D4623782A7861685340DB071AD5013125
:101CC0003046FFF791FC6B68B0680093AB68D4E9CD
:101CD0000121FFF705FC70602278337802F00102E1
:101CE0000FB1C2F1010262F30003337003B0F0BD23
:101CF0000027DEE73046FFF777FC6B68B06800939B
:101D0000AB68D4E90121FFF714FCE4E72DE9F04FBB
:101D100016464A680D4685B0736804469A4222BF4B
:101D200033460E461D4633787168DA0721D42B7886
:101D300013F001071DD1FFF757FCA068B6683B46BA
:101D4000D5E9011C99420BD100EB4101FFF79FFB44
:101D5000237860606FF30003237005B0BDE8F08F57
:101D600036F813203CF813502A4020F81320013392
:101D7000E8E701312046FFF737FC32782978D6F8BA
:101D800004C082EA010302F0010201F00101A0682F
:101D9000DB43D5F80880C1F1000E824603F0010351
:101DA0001FFA8EFE5F420093B368BFB2A3F102092F
:101DB0006B6802975742A3EB0C03BFB203930197E2
:101DC0000CF1FF377B1C16D1009B00EB4C011BB1C3
:101DD0000123023120F81C30FFF759FB6060337893
:101DE0002A78C3F30003C2F300021340227863F39E
:101DF00000022270B1E739F802BF019B83EA0B0BA6
:101E0000039B5A4403EB070B029BBB4507F1FF37CB
:101E100097BFB8F800B0F34608F102088EEA0B0B42
:101E2000594402EA010B090C120C8BEA030B009BCC
:101E300013FA8BF32AF8023B1B0C0093C2E72DE93F
:101E4000F84F15464A680E4604466B689A4222BF10
:101E50002B460D461E462B786968DA072ED4327859
:101E600012F001082AD1FFF7BFFBA9686D6842464E
:101E7000A768D6E9013CED1A934210D15B0000221D
:101E800019443B44954213D103EB4503DB1B5B1024
:101E9000636023786FF300032370BDE8F88F31F897
:101EA00012003CF81260304327F812000132E3E7D9
:101EB00031F8120023F812000132E3E70131204625
:101EC000FFF792FB2F7869684FF0010907F00107CF
:101ED000A068AD684A1EC7F1000E8246023D1FFA97
:101EE0008EFED6E901383678A3EB010B06F0010629
:101EF000C6F1000C1FFA8CFC531C08D100EB410109
:101F0000FFF7C5FA2378606043F00103C4E735F8B2
:101F1000023F8EEA03031F440BEB0203934202F1DC
:101F2000FF3297BFB8F80030634608F102088CEA28
:101F300003031E4447EA0603360C3F0CDB4319FA41
:101F400083F32AF8023B4FEA1349D5E7F0B514466C
:101F50004A680E4685B0636805469A4222BF23460A
:101F60000C461E462778616833785F4017F00107FA
:101F70003AD1FFF739FB237813F0010328D1A26887
:101F80006468A868D6E90117641A994210D149001B
:101F900000230A440144A34214D101EB4301FFF79B
:101FA00076FA2B7868606FF300032B7005B0F0BDF4
:101FB00032F8136037F813C086EA0C0620F8136075
:101FC0000133E2E732F8136021F813600133E2E7EE
:101FD000CDE9027701977368A8680093B368D4E9E4
:101FE0000121FFF7CBFADCE70131FFF7FDFA337887
:101FF000A868DB4303F0010303932378DB4303F07A
:10200000010302930123019373680093B368D4E939
:102010000121FFF7B3FA2B78686043F00103C4E7AE
:102020004B682DE9F04F044685B00E4615460BB1BE
:10203000536823B90023636005B0BDE8F08F814287
:102040002FD1FFF7E6FAA5420646074600D105461E
:102050006B68204671681944FFF7C6FA22680021B0
:10206000A068C2F39D0252001DF0CCFFB368D6F801
:1020700004C0002002936FF00103D4F808A003FB12
:102080000CF30AEB4C01023BD5E90128039392B310
:10209000039BDDF808B003EB010ECDF804C000236C
:1020A00018E0824204D1FFF7B4FA05460746CFE7AD
:1020B0000027CDE73EF8029F99443BF8023B1846C3
:1020C000B8F8003003FB00930198AEF800300138F7
